:10000000000001206D670000956700009767000001
:10001000996700009B6700009D67000000000000DA
:100020000000000000000000000000009F670000CA
:10003000A167000000000000A3670000A5670000A2
:10004000A7670000A7670000D12A000095240000E0
:10005000A7670000A7670000491B0000A767000012
:10006000A7670000A7670000A7670000A767000058
:10007000A7670000A7670000A7670000A767000048
:10008000A767000099110000A7670000A76700009C
:10009000D9110000A7670000A7670000A76700004C
:1000A000A7670000A7670000A7670000A767000018
:1000B000A7670000A7670000000000000000000024
:1000C000A7670000A7670000A7670000A7670000F8
:1000D000A7670000A7670000A767000000000000F6
:1000E0000000000000000000000000000000000010
:1000F0000000000000000000000000000000000000
:1001000000000000000000000000000000000000EF
:1001100000000000000000000000000000000000DF
:1004000010B5054C237833B9044B13B10448AFF34E
:1004100000800123237010BD7C000020000000003C
:10042000107C00000C4B43B10C480D4910B5AFF3E4
:1004300000800C48036823B910BD0A48036833B92B
:100440007047094B002BF7D0BDE810401847064B0A
:10045000002BF5D0184700BF00000000107C000002
:10046000800000207800002000000000154B002BC9
:1004700008BF134B9D46A3F5803A00218B460F46DB
:100480001348144A121A00F063F80F4B002B00D0E7
:1004900098470E4B002B00D0984700200021040005
:1004A0000D000D48002802D00C48AFF3008000F08A
:1004B0002BF82000290002F0D3FC00F011F800BF57
:1004C0000000080000000120000000000000000003
:1004D0007C000020980A00200000000000000000BE
:1004E00008B5074B044613B10021AFF30080054B5C
:1004F0001868836A03B19847204600F031F800BFBE
:1005000000000000DC76000070B50D4E0D4CA41B01
:10051000A4100025A54209D10B4E0C4C07F0D2F8CF
:10052000A41BA4100025A54205D170BD56F82530A6
:1005300098470135EEE756F8253098470135F2E740
:100540007000002070000020700000207400002067
:1005500002440346934200D1704703F8011BF9E7B8
:10056000FEE700BF80B586B000AFF860B9607A6082
:10057000FB687B61214806F023F97969204806F081
:100580001FF9BB687B6179691E4806F019F97B6821
:100590007B6179691C4806F013F9FB6844F201029B
:1005A000934212D044F20202934200D022E07B68D0
:1005B0001B887B617969154806F002F97B685B68E6
:1005C0001946134806F0FCF814E07B681B887B6131
:1005D00079690E4806F0F4F87B685B6819460C48A8
:1005E00006F0EEF87B689B687B617969094806F044
:1005F000E7F800BF00BF1837BD4680BDE0760000B9
:10060000F876000014770000307700004C77000087
:10061000607700007477000080B586B000AF786026
:100620000023BB8100233B617B687B6107F10C03E6
:100630001A46002144F2010000F034F800BF1837D8
:10064000BD4680BD80B588B000AFF860B9607A6003
:10065000BB689BB2BB827B68BB61FB68FB6107F137
:1006600014031A46002144F20100FFF77BFF0A2021
:1006700000F004FE00BF2037BD4680BD80B400AF4F
:10068000BFF34F8F0549054BDB6803F4E062044B71
:100690001343CB60BFF34F8F00BFFDE700ED00E0D9
:1006A0000400FA0580B584B000AFF860B9607A60E4
:1006B000FFF7E4FF00BF1037BD4680BD80B483B0B4
:1006C00000AF0346FB71094997F907305B09FA79D6
:1006D00002F01F02012000FA02F241F8232000BFBD
:1006E0000C37BD465DF8047B704700BF00E100E0B9
:1006F00080B483B000AF0346FB71094997F9073016
:100700005B09FA7902F01F02012000FA02F220339D
:1007100041F8232000BF0C37BD465DF8047B7047CD
:1007200000E100E080B483B000AF0346FB710949EB
:1007300097F907305B09FA7902F01F02012000FAED
:1007400002F2403341F8232000BF0C37BD465DF86C
:10075000047B704700E100E080B483B000AF034643
:10076000FB71094997F907305B09FA7902F01F021A
:10077000012000FA02F2603341F8232000BF0C3759
:10078000BD465DF8047B704700E100E080B582B0B3
:1007900000AF2D4B4FF48032C3F844232A4B4FF463
:1007A0008032C3F804231120FFF7D6FF1120FFF792
:1007B00085FF254B01221A602F237B607B6818463A
:1007C000013800BF00BF00BF00BF00BF00BF00BFB7
:1007D00000BF00BF00BF00BF00BF00BF00BF00BF21
:1007E00000BF00BF00BF00BF00BF00BF00BF00BF11
:1007F00000BF00BF00BF00BF00BF00BF00BF00BF01
:1008000000BF00BF00BF00BF00BF00BF00BF00BFF0
:1008100000BF00BF00BF00BF00BF00BF00BF00BFE0
:1008200000BF00BF00BF00BF00BF00BF00BF00BFD0
:1008300000BF00BF00BFC3D1044B01221A7000BF2C
:100840000837BD4680BD00BF00100140B800002041
:1008500080B582B000AF1120FFF74AFF4C4B4FF438
:100860008032C3F848234A4B4FF48032C3F8082340
:10087000474B01225A602F237B607B681846013862
:1008800000BF00BF00BF00BF00BF00BF00BF00BF70
:1008900000BF00BF00BF00BF00BF00BF00BF00BF60
:1008A00000BF00BF00BF00BF00BF00BF00BF00BF50
:1008B00000BF00BF00BF00BF00BF00BF00BF00BF40
:1008C00000BF00BF00BF00BF00BF00BF00BF00BF30
:1008D00000BF00BF00BF00BF00BF00BF00BF00BF20
:1008E00000BF00BF00BF00BF00BF00BF00BF00BF10
:1008F00000BF00BFC3D1264B01229A60254B0022C6
:100900001A602F233B603B681846013800BF00BFC8
:1009100000BF00BF00BF00BF00BF00BF00BF00BFDF
:1009200000BF00BF00BF00BF00BF00BF00BF00BFCF
:1009300000BF00BF00BF00BF00BF00BF00BF00BFBF
:1009400000BF00BF00BF00BF00BF00BF00BF00BFAF
:1009500000BF00BF00BF00BF00BF00BF00BF00BF9F
:1009600000BF00BF00BF00BF00BF00BF00BF00BF8F
:1009700000BF00BF00BF00BF00BF00BF00BF00BF7F
:10098000C3D1054B00221A7000BF0837BD4680BD99
:1009900000100140A4000020B800002080B400AF87
:1009A000034BD3F804351846BD465DF8047B704709
:1009B0000010014080B483B000AF786039607A687D
:1009C0003B68D31A23F07F4318460C37BD465DF8C9
:1009D000047B704780B483B000AF7860044A7B68C2
:1009E000C2F8403500BF0C37BD465DF8047B704748
:1009F0000010014080B487B000AF7860294B1B68BD
:100A0000002B03D1274A7B68136045E07B681A6896
:100A1000244B1B681B689A4210D8224B1B68214A42
:100A2000126811687A6812688A1A1A601D4B1A686F
:100A30007B68DA611B4A7B6813602DE07B681B686A
:100A4000FB60184B1B687B61164B1B683B6109E020
:100A50003B691B68FA68D31AFB603B697B613B69A1
:100A6000DB693B613B69002B04D03B691A68FB687A
:100A70009A42EDD33B69002B05D03B691A68FB68AD
:100A8000D21A3B691A607B68FA681A607B683A6917
:100A9000DA617B697A68DA6100BF1C37BD465DF8B0
:100AA000047B7047A000002080B487B000AF78605E
:100AB000234B1B687B617B693B6108E03A697B687B
:100AC0009A4208D03B697B613B69DB693B613B69CA
:100AD000002BF3D100E000BF3B69002B29D07A69DD
:100AE0003B699A4211D1164B1B68DB69144A1360AB
:100AF000134B1B68002B08D1124B01229A60124B3A
:100B000000221A60114B01221A703B691B68FB60BE
:100B10003B69DA697B69DA617B69DB693B613B6967
:100B2000002B07D03B691A68FB681A443B691A60BE
:100B300000E000BF1C37BD465DF8047B704700BF76
:100B4000A000002000100140A4000020B9000020F7
:100B500080B500AF1120FFF7E5FD00BF80BD80B577
:100B600000AF1420FFF7DEFD00BF80BD80B584B06C
:100B700000AF7860124B1B68002B17D0104B1B681E
:100B80007A6850697A68926911469847F860FB68FC
:100B9000BB60BB68002B0FD00A4A40F26511B868F1
:100BA000FFF750FDB868FFF737FD05E07B685B692C
:100BB0007A6892691046984700BF1037BD4680BDDD
:100BC000B40000208877000080B584B000AF2B4BC4
:100BD0001B68002B4ED000237B60FFF7DFFE024630
:100BE000274B1B6819461046FFF7E4FEB860234BFD
:100BF0001B68FB601DE0FB681A68BB689A421CD842
:100C0000FB681B68BA68D31ABB60FB681B687A680C
:100C100013447B60FB683B60FB68DB69FB603B68FF
:100C20001B7C002B05D03B6800221A743868FFF744
:100C30009DFFFB68002BDED100E000BF114B1A784E
:100C4000114B1B789A420CD10F4B1B780133DAB24F
:100C50000D4B1A700C4B1B78022B02D10A4B002251
:100C60001A70094B1B781946084A7B6842F82130F4
:100C7000FFF775FF00BF1037BD4680BDA000002004
:100C8000A4000020B0000020B1000020A800002037
:100C900080B483B000AF7860194B1A78194B1B7879
:100CA0009A4223D0164B1B780133DAB2144B1A70D8
:100CB000134B1B78022B02D1114B00221A70104BE0
:100CC0001B781A46104B53F822207B681A607B6809
:100CD0001A680E4B1B6813440C4A13600B4B1B68BD
:100CE00023F07F43094A1360012303E07B6800225D
:100CF0001A60002318460C37BD465DF8047B704728
:100D0000B0000020B1000020A8000020A4000020B6
:100D100080B586B000AF2B4B1B683B612A4B1B781C
:100D2000FB753EE0294B1A68FB7DDB001344FB603A
:100D3000FB681B78BB752FE0FB685968BA7D1346CA
:100D40005B001344DB000B44BB60BB7D0133BB7510
:100D5000FB689B78BA7D9A4201D10023BB75BB68C2
:100D60001B78022B02D0032B10D014E0BB685B6809
:100D70001846FFF799FE0FE0124B1B687B607B68FB
:100D800000221A747B68DB690E4A13600D4B1B68E6
:100D9000002BF1D100E000BFFB685B78BA7D9A427E
:100DA000CAD1FB7D5A1EFA75002BBBD1054B1A68C0
:100DB0003B699A4214BF01230023DBB2184618375F
:100DC000BD4680BDA0000020980000209C000020AF
:100DD00080B489B000AFF860B9607A600023FB612D
:100DE00038E0214B1B68BB61BB691A68FB689A42FB
:100DF00006D9BB691A68FB68D21ABB691A602DE074
:100E0000BB691B68FA68D31AFB60BB691B68FA6987
:100E10001344FB61BB6900221A60134B1B687B61A2
:100E2000BB69DB69104A1360BB69DB68002B11D01A
:100E3000BA68FB69134423F07F42BB695A60BB69FF
:100E4000DA68BB699A607B681A68BB69DA617B689B
:100E50007A691A60044B1B68002BC2D100BF24378B
:100E6000BD465DF8047B7047A000002080B588B0C7
:100E700000AF7860584B1B687B61584B1B78FB7741
:100E800097E0574B1A68FB7FDB0013443B6185E01A
:100E90007B68002B05D07B68BB61BB69DB697B602D
:100EA0003CE03B695A683B691B7819460B465B007E
:100EB0000B44DB001344FB603B691B780133DAB25F
:100EC0003B691A703B691A783B699B789A4202D158
:100ED0003B6900221A70FB685B68BB61FB681B788A
:100EE000012B5BD1BB691B7C002B00D056E0FB685B
:100EF0009A68BB695A60FB68DA68BB699A60FB68EC
:100F00001A69BB69DA60FB685A69BB699A61354B3B
:100F10001B78002B02D0BB6900225A60BB695A685B
:100F2000314B1B68D31A23F07F43304A93420ED8CB
:100F3000BB695A682C4B1B6819461046FFF73AFDEF
:100F40000246BB699B681A44BB691A6017E0264BCE
:100F50001A68BB695B6819461046FFF72BFDB8603D
:100F6000BB699A68BB689A4206D9BB699A68BB6834
:100F7000D21ABB691A6002E0BB6900221A60BB6921
:100F800000225A60BB6900229A60BB6901221A7470
:100F9000BB690022DA61B869FFF72CFD7B68002B82
:100FA0007FF476AF3B691A783B695B789A427FF4AD
:100FB0006FAFFB7F5A1EFA77002B7FF462AF064BB0
:100FC0001A687B699A4214BF01230023DBB21846DA
:100FD0002037BD4680BD00BFA00000209800002043
:100FE0009C000020B9000020A4000020FEFF7F002C
:100FF00090B589B000AF7860464B1B68002B00F0BD
:101000008280444B1B681B68FB61FFF7C7FCB8611B
:10101000414B1B687B617969B869FFF7CBFC0346DC
:1010200003333B613D4B1B7883F00103DBB2002BA4
:1010300001D0FFF7ABFB3A69FB69934238BF134617
:101040007A6913447B617B6923F07F437B61786914
:10105000FFF7C0FCFFF7A2FCF860B969F868FFF77A
:10106000A9FC0346DC1CB9697869FFF7A3FC0346B9
:101070009C424AD9FFF792FC03461846FFF7AAFCA8
:101080002F23BB60BB681846013800BF00BF00BFFC
:1010900000BF00BF00BF00BF00BF00BF00BF00BF58
:1010A00000BF00BF00BF00BF00BF00BF00BF00BF48
:1010B00000BF00BF00BF00BF00BF00BF00BF00BF38
:1010C00000BF00BF00BF00BF00BF00BF00BF00BF28
:1010D00000BF00BF00BF00BF00BF00BF00BF00BF18
:1010E00000BF00BF00BF00BF00BF00BF00BF00BF08
:1010F00000BF00BF00BF00BF00BF00BF00BFC3D123
:10110000FFF726FD01E0FFF7A3FB00BF2437BD4634
:1011100090BD00BFA0000020A4000020B800002067
:1011200080B586B000AF00237B60184B1B683B6125
:10113000174B1B68FB603B461846FFF7A9FD0346AB
:10114000FB72FFF7E5FD0346FB75FB7A002B07D02A
:101150003B683A1D39691846FFF73AFE0123FB75D3
:101160007B681846FFF782FE0346002B01D001235F
:10117000FB75FB7D002B02D0F868FFF739FF054BAC
:1011800000221A7000BF1837BD4680BDA4000020A1
:10119000A0000020B900002080B500AF0D4B002258
:1011A000C3F840210B4B0022C3F84421094B002215
:1011B000C3F84821074B0022C3F84C21054B0022FD
:1011C000C3F80021034B0022C3F80421FFF7FCFC05
:1011D00000BF80BD0010014080B500AFFFF7A0FF49
:1011E00000BF80BD80B582B002AF144B1B78002BCE
:1011F00001D000231EE0012300934FF48063104AC6
:101200001049002002F086F80346002B01D0082385
:1012100010E00023009310230B4A0C49002002F039
:10122000E3F80346002B01D0082303E0034B01221F
:101230001A7000231846BD4680BD00BFCC040020B4
:10124000BC000020D0770000BC040020D87700004C
:101250000EB480B585B000AF786007F12003FB6065
:101260007B6807F10C02F969184602F0B9FA00BF71
:101270001437BD46BDE8804003B0704780B485B0E8
:1012800000AF786043E07B68013B7B6040F2E7336E
:10129000FB60FB681846013800BF00BF00BF00BFFD
:1012A00000BF00BF00BF00BF00BF00BF00BF00BF46
:1012B00000BF00BF00BF00BF00BF00BF00BF00BF36
:1012C00000BF00BF00BF00BF00BF00BF00BF00BF26
:1012D00000BF00BF00BF00BF00BF00BF00BF00BF16
:1012E00000BF00BF00BF00BF00BF00BF00BF00BF06
:1012F00000BF00BF00BF00BF00BF00BF00BF00BFF6
:1013000000BF00BF00BF00BF00BF00BFC3D17B68EC
:10131000002BB8D100BF1437BD465DF8047B704781
:1013200080B483B000AF0346FB71094997F90730D9
:101330005B09FA7902F01F02012000FA02F241F87B
:10134000232000BF0C37BD465DF8047B704700BF0B
:1013500000E100E080B483B000AF0346FB710949AF
:1013600097F907305B09FA7902F01F02012000FAB1
:1013700002F2603341F8232000BF0C37BD465DF810
:10138000047B704700E100E080B483B000AF034607
:101390003960FB7197F90730002B0BDA0D49FB79A7
:1013A00003F00F03043B3A68D2B25201D2B20B44AD
:1013B0001A7609E0084997F907303A68D2B2520123
:1013C000D2B20B4483F8002300BF0C37BD465DF852
:1013D000047B704700ED00E000E100E080B582B0E2
:1013E00000AF03460A46FB711346BB71BA7997F901
:1013F000073011461846FFF7C7FF97F90730184620
:10140000FFF7A8FF97F907301846FFF789FF00BFDD
:101410000837BD4680BD80B582B000AF0346FB8073
:10142000FB88184600F024F803461B68012B0CBF0C
:1014300001230023DBB218460837BD4680BD80B5C6
:1014400084B000AF0346FB80FB88184600F010F81C
:1014500003461A4600231360FB88184600F008F87C
:1014600003461B68FB60FB6800BF1037BD4680BDAC
:1014700080B483B000AF0346FB80FB8803F1804358
:1014800003F5C04318460C37BD465DF8047B704732
:1014900080B483B000AF7860044A7B68C2F804333C
:1014A00000BF0C37BD465DF8047B7047006000400C
:1014B00080B483B000AF7860054BD3F804237B6819
:1014C000134018460C37BD465DF8047B704700BFDB
:1014D0000060004080B483B000AF78600949094AD9
:1014E0007B6803F5A27352F8233043F001027B6856
:1014F00003F5A27341F8232000BF0C37BD465DF809
:10150000047B70470060004080B485B000AFF86095
:10151000B9601346FB711649154AFB6803F5A273BF
:1015200052F8233023F4473323F44073FA6802F56A
:10153000A27241F822300E480D4AFB6803F5A273EF
:1015400052F82320BB681B0203F4F851FB791B04FB
:1015500003F440330B431A43FB6803F5A27340F8CE
:10156000232000BF1437BD465DF8047B704700BFE1
:101570000060004080B483B000AF7860074A7B68A9
:1015800003F5A27352F823301B0A03F01F03184619
:101590000C37BD465DF8047B704700BF006000401B
:1015A00080B483B000AF7860074A7B6803F5A2730C
:1015B00052F823301B0C03F00303DBB218460C3740
:1015C000BD465DF8047B70470060004080B483B086
:1015D00000AF7860084611461A460346FB700B467A
:1015E000BB7013467B704FF0A041FA78BB785B006C
:1015F0001A437B789B001A433B7C1B021A433B7DBA
:101600001B041A437B6803F5E07341F8232000BFF5
:101610000C37BD465DF8047B704780B584B002AFDF
:1016200078600B46FB70FA78002301930023009347
:101630001346002200217868FFF7C8FF00BF083773
:10164000BD4680BD80B485B000AF78604FF0A04249
:101650007B6803F5E07352F8233023F00203FB604C
:101660004FF0A0417B6803F5E073FA6841F823204E
:1016700000BF1437BD465DF8047B704780B483B06B
:1016800000AF78600B46FB704FF0A0414FF0A042D6
:101690007B6803F5E07352F8233023F440327B6813
:1016A00003F5E07341F823204FF0A0414FF0A04232
:1016B0007B6803F5E07352F82330FA7812041A437A
:1016C0007B6803F5E07341F8232000BF0C37BD466B
:1016D0005DF8047B704780B400AF4FF0A043D3F8AF
:1016E00010351846BD465DF8047B704780B483B062
:1016F00000AF78604FF0A0427B6803F5E07352F8CA
:1017000023301B0C03F00303DBB218460C37BD4635
:101710005DF8047B7047000080B483B000AF786050
:101720000D4A7B681344303393F90030002B09DBFA
:10173000094A7B681344303393F90030072B01DCEE
:10174000012300E0002303F00103DBB218460C374D
:10175000BD465DF8047B7047D004002080B483B0A0
:1017600000AF7860084A7B681344303393F9003047
:10177000072BCCBF01230023DBB218460C37BD4634
:101780005DF8047B704700BFD004002080B483B0B4
:1017900000AF7860074A7B681344303393F9003018
:1017A000DB43DBB2DB09DBB218460C37BD465DF824
:1017B000047B7047D004002080B485B000AFF8608F
:1017C000B9607A60FB70BB6859B2104AFB68134479
:1017D00030330A461A700D49BB687A6841F82320F5
:1017E000FB7883F00103DBB2002B08D0BB68083B19
:1017F000FA6851B2054A13440A4683F8502000BFE4
:101800001437BD465DF8047B704700BFD00400204C
:1018100080B483B000AF7860054A7B6813443033EE
:10182000FF221A7000BF0C37BD465DF8047B70477D
:10183000D004002080B483B000AF7860054A7B6894
:101840001344303393F9003018460C37BD465DF829
:10185000047B7047D004002080B483B000AF786070
:10186000044A7B6852F8233018460C37BD465DF8B1
:10187000047B7047D004002080B588B000AFF860CA
:10188000B9601346FB71FF23FB77FB79002B01D076
:10189000002300E008237B61FB79002B01D00823A3
:1018A00000E00C233B617B69BB6112E00E4ABB691F
:1018B00052F82330B3F1FF3F08D1FB79BA68B96918
:1018C000F868FFF779FFBB69FB7706E0BB69013376
:1018D000BB61BA693B699A42E8D397F91F30184651
:1018E0002037BD4680BD00BFD004002080B483B047
:1018F00000AF0346FB71FB790A4A4FF0FF3142F813
:101900002310FB79072B06D9FB79083B054A1344C2
:10191000FF2283F8502000BF0C37BD465DF8047BE2
:10192000704700BFD004002080B582B000AF194BD3
:1019300093F85430002B01D0082326E00023FB71DC
:1019400006E0FB791846FFF763FFFB790133FB7173
:10195000FB791F2BF5D90023FB7106E0FB791846B4
:10196000FFF7C4FFFB790133FB71FB790B2BF5D932
:1019700006210620FFF732FD4FF00040FFF788FDFB
:10198000044B012283F85420002318460837BD4633
:1019900080BD00BFD004002080B400AF064B93F898
:1019A0005430002B14BF01230023DBB21846BD4680
:1019B0005DF8047B704700BFD004002080B586B07E
:1019C00000AFF860B9607A6000237B61F868FFF7C8
:1019D000DDFE0346002B02D008237B6140E0BB689C
:1019E000DB781A467968F868FFF746FF0346FB7410
:1019F00097F91330B3F1FF3F30D0BB689B78002BD1
:101A000003D0F868FFF71EFE05E0BB685B78194657
:101A1000F868FFF702FEBB68DB78002B08D097F967
:101A20001300BB681B781A46F968FFF76DFD17E0D5
:101A300097F91330083B97F91320083A0B490A44E9
:101A400092F95010BA681278920152B20A4351B218
:101A5000064A13440A4683F8502001E004237B61C0
:101A60007B6918461837BD4680BD00BFD0040020F2
:101A700080B586B000AF78600B46FB707868FFF7E2
:101A80006DFE0346002B2BD07868FFF7D3FE03468C
:101A9000083B2C4A134493F95030BB75BB7D9B091E
:101AA0007B757B7D032B0ED1FFF715FE01460122CE
:101AB0007B6802FA03F30B40002B01D0032300E004
:101AC0000223FB7506E07B7D012B01D1022300E0A0
:101AD0000323FB75FB7D19467868FFF7CFFD2DE0EA
:101AE0007868FFF719FE0346002B27D07868FFF7C8
:101AF000A1FE03463B613B699BB240339BB29B0016
:101B0000FB813B691846FFF7E5FCFB891846FFF7A8
:101B100096FCFB78002B11D07868FFF78BFE03460C
:101B20001846FFF799FEB860BB68002B06D001226B
:101B30003B6902FA03F31846FFF7AAFC00BF183707
:101B4000BD4680BDD004002080B592B000AF002318
:101B50007B6400233B644FF480737B8701237B63AA
:101B60000023FB631DE07B8F1846FFF754FC034600
:101B7000002B0DD0786BFFF79BFC0346002B07D0A2
:101B80007B8F1846FFF75BFC7A6C7B6B13437B649F
:101B90007B6B5B007B637B8F04337B87FB6B013349
:101BA000FB63FB6B072BDED94FF4BE70FFF733FCF2
:101BB0000346002B0AD04FF4BE70FFF740FC7B6C4D
:101BC00043F000437B64FFF786FD38647B6CDBB237
:101BD000002B26D001237B630023FB631EE07A6B7E
:101BE0007B6C1340002B13D0F86BFFF7C3FC7862BB
:101BF000F86BFFF7D5FC034687F82330F86BFFF747
:101C00002BFEF86197F82320FB691146786A984704
:101C10007B6B5B007B63FB6B0133FB63FB6B072B15
:101C2000DDD97B6C002B80F29680002387F833305F
:101C30000023FB624FF0FF33BB62002387F8333091
:101C40000023FB636CE0464AFB6B1344503393F96B
:101C50000030FB76FB7E23F0C0037B61404AFB6BC8
:101C60001344503393F90030B3F1FF3F55D0BA6AB3
:101C70007B6922FA03F303F00103002B4DD0FB7EB6
:101C80009B09FB747869FFF7D5FD03461846FFF7FB
:101C9000E3FDF860FB68002B02D1FB7C032B3CD1F9
:101CA00001227B6902FA03F37B63FB7C032B03D1E4
:101CB000FA6A7B6B1343FB627869FFF717FD0346F3
:101CC000FB727A6B3B6C1340002B02D0FB7A022B29
:101CD00007D07A6B3B6C1340002B1ED1FB7A032B91
:101CE0001BD1FB7C032B10D1FB7A022B01D10323E8
:101CF00000E00223BB72BB7A19467869FFF7BEFC8D
:101D000097F83330013387F83330FB68002B04D069
:101D1000FA7CFB68114678699847FB6B0133FB63DB
:101D2000FB6B032B8FD997F83330002B0ED0FFF7C6
:101D3000D2FC78607A683B6C9A4203D1002387F822
:101D4000333003E07B683B64FB6ABB6297F8333057
:101D5000002B7FF472AF00BF4837BD4680BD00BF87
:101D6000D004002080B483B000AF78600B467B8045
:101D70007B887A68134400221A6000BF0C37BD4686
:101D80005DF8047B704780B483B000AF78600B4689
:101D90007B807B887A6813441B68002B14BF012367
:101DA0000023DBB218460C37BD465DF8047B704754
:101DB00080B483B000AF786039607B683A68C3F85C
:101DC000042300BF0C37BD465DF8047B704780B428
:101DD00083B000AF786039607B683A68C3F8082345
:101DE00000BF0C37BD465DF8047B704780B483B0FC
:101DF00000AF78607B680122C3F8002500BF0C3774
:101E0000BD465DF8047B704780B485B000AFF860D4
:101E1000B9607A603B60FB68BA68C3F80825FB6864
:101E20007A68C3F80C25FB683A68C3F8102500BF30
:101E30001437BD465DF8047B704780B483B000AFB3
:101E400078600B46FB70FA787B68C3F81C2500BFEE
:101E50000C37BD465DF8047B704780B483B000AF9B
:101E600078607B68D3F81835DBB218460C37BD466E
:101E70005DF8047B704780B483B000AF7860396050
:101E80003A687B68C3F8242500BF0C37BD465DF86F
:101E9000047B704780B485B000AF78600B46FB7060
:101EA0001346BB70BB78002B14BF01230023DBB2A9
:101EB000FB60FB78022B09D0032B0CD0012B00D048
:101EC0000EE0FB6843F00203FB6009E0FB6843F0AF
:101ED0000403FB6004E0FB6843F00603FB6000BF03
:101EE0007B68FA68C3F8542500BF1437BD465DF817
:101EF000047B704780B483B000AF78600846114619
:101F00001A460346FB700B46BB7013467B704FF0BE
:101F1000A041FA78BB785B001A437B789B001A4398
:101F20003B7C1B021A433B7D1B041A437B6803F571
:101F3000E07341F8232000BF0C37BD465DF8047BF9
:101F4000704780B584B002AF78600023019300230E
:101F500000930023012201217868FFF7CBFF00BF27
:101F60000837BD4680BD80B584B002AF78600B46AF
:101F7000FB70FA780023019300230093134600229C
:101F800000217868FFF7B6FF00BF0837BD4680BD67
:101F900080B483B000AF78604FF0A04201217B682D
:101FA00001FA03F3C2F8083500BF0C37BD465DF8EF
:101FB000047B704780B483B000AF78604FF0A042DC
:101FC00001217B6801FA03F3C2F80C3500BF0C371E
:101FD000BD465DF8047B704780B588B000AFF860FF
:101FE000B9607A60FB685B795B01564A13447B6198
:101FF0007B691B7E002B01D008239FE0BB68002B70
:1020000005D1FB685B791B014F4A1344BB607B69B8
:102010007A681A60BB681B7B012B05D8BB681B78EC
:102020001846FFF7C7FF04E0BB681B781846FFF7A8
:10203000AFFF4FF0A042BB681B7803F5E0730121AE
:1020400042F82310BB685B78FF2B09D0BB685B7834
:10205000FB61F869FFF7AEFFF869FFF772FF02E076
:102060004FF0FF33FB61BB689B78FF2B07D0BB6849
:102070009B78BB610021B869FFF775FF02E04FF064
:10208000FF33BB61BB68DB78FF2B09D0BB68DB7813
:102090001846FFF77DFFBB68DB781846FFF751FF56
:1020A000FB685B791846BB68D978264A430113441C
:1020B0001A330A461A70FB681B683B61BB681B78C1
:1020C0001946BB69FA693869FFF79EFEBB689B68D1
:1020D00019463869FFF7CFFEBB68197BBB685B7B8D
:1020E0001A463869FFF7D6FEFB685B791846BB686D
:1020F0005979144A430113441B330A461A707B6909
:102100001B68002B03D004213869FFF751FE3869A2
:10211000FFF76CFE7B691B68002B08D0FB6893F906
:102120000420BB681B7919461046FFF757F97B69F5
:1021300000225A767B6901221A760023184620373E
:10214000BD4680BD28050020E077000080B588B03E
:1021500000AFF860B9603B601346FB71BB683B6140
:102160003B68BB61FB793B7597F828303B7707F1FB
:10217000100300221946F86800F020F903461846BB
:102180002037BD4680BD80B584B000AF786019238C
:10219000FB60FB681846013800BF00BF00BF00BFEE
:1021A00000BF00BF00BF00BF00BF00BF00BF00BF37
:1021B00000BF00BF00BF00BF00BF00BF00BF00BF27
:1021C00000BF00BF00BF00BF00BF00BF00BF00BF17
:1021D00000BF00BF00BF00BF00BF00BF00BF00BF07
:1021E00000BF00BF00BF00BF00BF00BF00BF00BFF7
:1021F00000BF00BF00BF00BF00BF00BF00BF00BFE7
:1022000000BF00BF00BF00BF00BF00BFC3D17B68DD
:102210009B7EFF2B04D07B689B7E1846FFF7B8FEA1
:102220007B6800225A767B6800221A717B681B68E3
:102230007A6804321046984700BF1037BD4680BD0B
:1022400080B584B000AF786039607868FFF705FE2C
:1022500003467B733B681A7F3B681B7D9A4207D21B
:102260003B681B693A68127F13447A7BD2B21A70BA
:102270003B681B7F0133DAB23B681A773B681B7FF0
:102280009BB20133FB813B681B7B9BB2FA899A426C
:102290000AD23B689A68FB8913441B781946786810
:1022A000FFF7CBFD01231FE03B681B7D9BB2FA8942
:1022B0009A4207D23B68DB7E19467868FFF7BDFD7E
:1022C000012311E03B681A7F3B681B7B9A4205D3D0
:1022D0003B681A7F3B681B7D9A4201D2012300E0D4
:1022E000002303F00103DBB218461037BD4680BD62
:1022F00080B584B000AFF860B9607A60BB68002236
:102300001A770421F868FFF762FD4FF48471F868CA
:10231000FFF728FD7B681B79002B03D07B681B68C7
:102320001B7801E0BB68DB7E1946F868FFF785FD86
:102330007B681B79012B08D97B681B6801331B78EC
:102340001946F868FFF779FD09E07B681B7B012BD4
:1023500005D9BB68DB7E1946F868FFF76EFDBB68E0
:102360001B68002B04D00421F868FFF721FD20E052
:1023700000BF4FF48471F868FFF705FD034683F052
:102380000103DBB2002BF4D14FF48471F868FFF73E
:10239000E9FCB968F868FFF753FF0346002BE7D163
:1023A000BB689B7EFF2B04D0BB689B7E1846FFF763
:1023B000EFFD00BF1037BD4680BD000090B587B06F
:1023C00000AFF860B9607A60FB685B795B01224A14
:1023D00013447B617B695B7EDBB2002B01D0112350
:1023E00036E07B691B68002B07D07B6803F0140381
:1023F000002B02D17B6901225A767B69BA6803F10E
:10240000080413460FCB84E80F007A69537F6FF3FB
:10241000000353777A69537F6FF3410353777B69E6
:102420009B7EFF2B04D07B699B7E1846FFF7C2FD85
:102430007B68002B04D07B6900225A76062307E0D4
:10244000FB681B68BA6879691846FFF751FF0023DB
:1024500018461C37BD4690BD2805002080B582B0C7
:1024600000AF786039604FF484717868FFF77AFCC8
:1024700039687868FFF7E4FE034683F00103DBB2B6
:10248000002B02D03868FFF77EFE00BF0837BD463C
:1024900080BD000080B582B000AF054B7B607968DD
:1024A0000448FFF7DBFF00BF0837BD4680BD00BF13
:1024B000280500200030004080B483B000AF786071
:1024C0000B467B807B887A68134400221A6000BF29
:1024D0000C37BD465DF8047B704780B483B000AF15
:1024E00078600B467B807B887A6813441B68002BDE
:1024F00014BF01230023DBB218460C37BD465DF83C
:10250000047B704780B483B000AF786039607B682B
:10251000D3F804233B681340002B14BF012300238E
:10252000DBB218460C37BD465DF8047B704780B4BB
:1025300083B000AF786039607B683A68C3F80823DD
:1025400000BF0C37BD465DF8047B704780B485B092
:1025500000AF78607B68D3F88034FB607B68FA68F2
:10256000C3F88024FB6818461437BD465DF8047B29
:10257000704780B483B000AF78607B68D3F81835BB
:10258000DBB218460C37BD465DF8047B704780B45B
:1025900083B000AF78600B46FB70FA787B68C3F8B5
:1025A0001C2500BF0C37BD465DF8047B704780B426
:1025B00083B000AF78600B46FB70FB787A681344F9
:1025C00001221A6000BF0C37BD465DF8047B7047DE
:1025D00080B483B000AF78600B467B807B887A68DC
:1025E000134400221A6000BF0C37BD465DF8047B1F
:1025F000704780B483B000AF78600B467B807B88E7
:102600007A6813441B68002B14BF01230023DBB23C
:1026100018460C37BD465DF8047B704780B483B024
:1026200000AF786039607B68D3F800223B68DB43F9
:102630001A407B68C3F8002200BF0C37BD465DF826
:10264000047B704780B485B000AF78607B68D3F8B6
:102650008034FB607B68FA68C3F88024FB68184606
:102660001437BD465DF8047B704780B483B000AF7B
:1026700078607B68D3F84C3518460C37BD465DF85A
:10268000047B704780B483B000AF78607B68D3F878
:102690003C3518460C37BD465DF8047B704700009A
:1026A00080B582B000AF4FF48E710D48FFF704FF84
:1026B0000C4B9B680B4A928A92B213441B78FB71B5
:1026C000084B9B8A9BB201339AB2064B9A82FB79E4
:1026D00019460348FFF75BFF00BF0837BD4680BDC2
:1026E000002000404805002098B500AF124BDB7D6C
:1026F000002B08D14FF484711048FFF7DDFE0F481E
:10270000FFF737FF16E04FF484710C48FFF7D4FE53
:10271000094BDB68084A527ED2B29C180748FFF783
:1027200028FF03462370044B5B7EDBB20133DAB231
:10273000014B5A7698BD00BF48050020002000409C
:1027400080B586B000AF03463960FB7101233B7250
:10275000FB793B743B68FB60054B5B68044A11687E
:1027600007F108021046984700BF1837BD4680BDE4
:102770004805002080B586B000AF0346FB710023FA
:102780003B72FB793B74094B9B68FB60074B002253
:102790009A75064B5B68054A116807F108021046F6
:1027A000984700BF1837BD4680BD00BF48050020D0
:1027B00080B586B000AF4FF400716D48FFF7A2FE00
:1027C0000346002B37D04FF492716948FFF785FE1E
:1027D0000346002B2FD04FF492716548FFF76CFE33
:1027E0004FF401716248FFF7A2FE624B9B7E83F0BB
:1027F0000103DBB2002B03D004215D48FFF7D7FEB5
:1028000002233B705A48FFF7A1FE0346FB60594B79
:10281000DB7D3B72574BDB687B60564B0022DA75E1
:10282000544B00221A76534B5B68524A11683A4661
:102830001046984751E004214D48FFF763FE0346D8
:10284000002B4AD04FF484714948FFF746FE0346F7
:10285000002B42D0FFF748FF464BDA7D454B5B7EAD
:10286000DBB29A4239D1434B1B7E002B19D0414B2E
:10287000DB687B613F4B5B7EFB743E4B1A7E3D4BBE
:10288000DA753C4B1B693B4AD3603A4B00221A76FF
:10289000384B00225A76FB7C79691846FFF750FFC7
:1028A0001BE0344B9B7E83F00103DBB2002B03D093
:1028B00004212F48FFF77BFE4FF401712C48FFF7EE
:1028C00036FE2C4B0022DA752A4B5B7EDAB2294B9E
:1028D000DB6819461046FFF733FF4FF48E7124482A
:1028E000FFF7FBFD0346002B18D0224B9B8A9AB2C0
:1028F000204B9B7D9BB29A4202D2FFF7D1FE0DE0A6
:102900004FF48E711A48FFF7D7FD1A4B9B7D002BB1
:1029100004D0184B9B7D1846FFF72CFF4FF4A27193
:102920001348FFF7DAFD0346002B1CD04FF4A271C9
:102930000F48FFF7C1FD0F4B9B7E002B03D00021FA
:102940000B48FFF734FE0B4BDB7D002B0BD0094B04
:102950000022DA75074B5B7EDAB2064BDB6819465C
:102960001046FFF7EDFE00BF1837BD4680BD00BF23
:10297000002000404805002080B586B000AF4FF42D
:1029800092715148FFF735FE0346002B22D04FF4D9
:1029900092714D48FFF71CFE02233B704A48FFF737
:1029A00051FE0346FB604848FFF76CFE0346DBB26E
:1029B0003B72464BDB687B60444B0022DA75434B2D
:1029C00000221A76414B5B68404A11683A4610462D
:1029D00098473CE04FF488713B48FFF70AFE0346F6
:1029E000002B34D04FF488713748FFF7F1FD36489B
:1029F000FFF748FE0346FB75344BDB7DFA7D9A42B8
:102A000025D1324B1B7E002B17D0304BDB683B614E
:102A100020212D48FFF702FE2C4B1A7E2B4BDA7536
:102A20002A4B1B69294AD360284B00221A76FB7D6A
:102A300039691846FFF784FE09E0244B0022DA7555
:102A4000224BDA68FB7D11461846FFF779FE4FF4FA
:102A5000A2711D48FFF7CDFD0346002B16D04FF4A1
:102A6000A2711948FFF7B4FD184BDB7D002B0DD088
:102A7000164B0022DA751448FFF704FE0346DAB25B
:102A8000124BDB6819461046FFF75AFE4FF490715F
:102A90000D48FFF7AEFD0346002B10D04FF49071A8
:102AA0000948FFF795FD094B9B7D002B07D0064891
:102AB000FFF7DBFD0346DBB21846FFF75BFE00BF06
:102AC0001837BD4680BD00BF0020004048050020EB
:102AD00080B500AF054B1B7F002B02D0FFF74CFFEA
:102AE00001E0FFF765FE00BF80BD00BF4805002084
:102AF00080B483B000AF7860084611461A4603469A
:102B0000FB700B46BB7013467B704FF0A041FA7808
:102B1000BB785B001A437B789B001A433B7C1B020B
:102B20001A433B7D1B041A437B6803F5E07341F8AD
:102B3000232000BF0C37BD465DF8047B704780B58D
:102B400084B002AF78600023019300230093002338
:102B5000012201217868FFF7CBFF00BF0837BD468F
:102B600080BD80B483B000AF78604FF0A0420121F7
:102B70007B6801FA03F3C2F8083500BF0C37BD4685
:102B80005DF8047B7047000080B58AB002AF034651
:102B90003960FB71FB79043B2E2B00F2CE8001A241
:102BA00052F823F02D2D00003B2D00003B2D00009E
:102BB0003B2D00003B2D00003B2D00003B2D000075
:102BC0003B2D00003B2D00003B2D00003B2D000065
:102BD0003B2D00003B2D0000612C00003B2D000030
:102BE000752C00003B2D00003B2D00003B2D00000C
:102BF0003B2D00003B2D00003B2D00003B2D000035
:102C00003B2D00003B2D00003B2D00003B2D000024
:102C10003B2D00003B2D00003B2D00003B2D000014
:102C20003B2D00003B2D00003B2D00003B2D000004
:102C30003B2D00003B2D00003B2D00003B2D0000F4
:102C40003B2D0000C92C00003B2D00003B2D000057
:102C50003B2D00003B2D00003B2D0000F32C00001D
:102C60003B68FB61FB691B78002B68D0374B022265
:102C70001A7064E03B68BB61BB690A33184603F015
:102C8000BFFD0346FB82212200213148FDF760FC95
:102C9000FB8A002B06D0BB690A33FA8A19462C48F6
:102CA00003F082FDBB6993F901301A46294B1A6083
:102CB000BB699A78284B1A70BB69DA78274B1A706F
:102CC000224B02221A703DE03B683B613B691B7856
:102CD000012B02D101F033FE33E03B691B78002B5E
:102CE0002FD11F490020FEF7B3FAFF2001F030FE7C
:102CF00027E03B68FB601B490020FEF7A9FAFB6850
:102D00001B781946FB6801331B781846FB680233B1
:102D10001B781A46FB6803331B7801930092034625
:102D20000A4611490020FEF793FA0BE03B6893F93D
:102D300000301A46074B1A6004E000BF02E000BFF3
:102D400000E000BF00BF2037BD4680BD1A0A00204A
:102D5000800500207C050020A1050020A2050020A0
:102D6000F8770000107800002478000080B483B069
:102D700000AF7860044B01221A7000BF0C37BD46CB
:102D80005DF8047B704700BF180A002080B586B04C
:102D900002AFF8600B467A60FB722A4B1B68002B6F
:102DA00008D0294B00221A60284B00221A60284BB9
:102DB00000221A60F86803F023FD0346D9B2FA7ABC
:102DC000FF2300937B68F86801F075FC0346002B35
:102DD00005DA204B04221A701E4B1B782EE01D4B87
:102DE00000221A701C4B01221A7002E0002001F030
:102DF00057FC184B1B7803F00303002B05D1154B30
:102E00001B7803F00603002BF0D0124B1B7803F065
:102E10000303002B02D1104B00221A702122002143
:102E20000E48FDF795FBF86803F0EAFC03461A46E6
:102E3000F9680A4803F0B8FC064B1B7818461037AF
:102E4000BD4680BD780500206C050020700500207F
:102E5000740500201A0A0020190A0020A405002089
:102E600090B58FB000AFFEF7BDF9554B00221A7038
:102E70000C20FFF764FE0D20FFF761FE0C20FFF72A
:102E800070FE0D20FFF76DFE00237B630EE04FF414
:102E900000327B6B42FA03F303F00103002B02D0F4
:102EA000786BFFF74CFE7B6B01337B637B6B1F2BD7
:102EB000EDD94FF0A0434FF40032C3F808254FF08E
:102EC000A0430022C3F80C25FEF78CF938633B6B56
:102ED000002B08D03B4A4FF49571386BFDF7B2FBDD
:102EE000386BFDF799FB38490020FEF7B1F9374BF5
:102EF00007F118040FCB84E80F000723FB764FF08F
:102F000080533B62002387F82430002387F8253064
:102F100007F118032E4A19462E48FFF75DF8F862AC
:102F2000FB6A002B08D0274A4FF49971F86AFDF725
:102F300089FBF86AFDF770FB01F060F93B46182247
:102F400000211846FDF704FB234B3B603B46184627
:102F500001F05AFB034687F82B3097F92B30002BF2
:102F60001DD097F92B301A461C490020FEF770F946
:102F7000FEE71B490020FEF76BF91A4A1A490020A8
:102F8000FEF766F9194A02211648FFF7FFFE0346CD
:102F90001A46174B1A6041F28830FEF76FF9144B4E
:102FA0001B68032BE5D100BF002001F079FB03462D
:102FB000002BF9D141F28830FEF760F9EFE700BF4E
:102FC000180A0020C8780000087900008079000005
:102FD0006D2D0000F0770000892B000018790000AB
:102FE0004079000064790000AC780000707900003E
:102FF0006805002080B584B000AFF860B9607A60E1
:103000003B603B681A467968002000F05FF93B6836
:1030100018461037BD4680BD80B582B000AF1F4B4B
:103020007B607B6802221A617B6802225A617B689E
:103030001B4A9A617B681B4ADA617B684FF48062A5
:103040001A627B6800229A627B6800225A627B685F
:103050000022DA627B68124A9A647B68124ADA6458
:103060007B6810221A657B6800229A657B680022C3
:103070005A657B680022DA657B6807330B4918467E
:1030800003F0B6FB7B680A49184603F0B1FB7B6886
:1030900020229A7100BF0837BD4680BD1C0A00205F
:1030A00090790000C8050020C80900209C79000024
:1030B000A079000080B588B000AFF860B9607A6090
:1030C0000023BB61FB68DB687B61FB681B693B61BC
:1030D0003A697B699A4205D93A697B69D31A013BFF
:1030E000FB6107E0FB689A6839697B69CB1A134476
:1030F000013BFB61FB689A687B69D31AFA699342CA
:1031000028BF1346FB61FA697B68934228BF1346C8
:10311000FB61FB685A687B691344FA69B968184611
:1031200003F042FBBA69FB691344BB61BA68FB69EF
:103130001344BB607A68FB69D31A7B607A69FB69C8
:1031400013447B61FB689A687B699A4201D1002332
:103150007B61FB687A69DA607B68002BB5D1BB695B
:1031600018462037BD4680BD80B588B000AFF860F6
:10317000B9607A60FB68DB68FB61FB689A68FB6991
:10318000D31ABB61BA697B689A420ED9FB685A6848
:10319000FB6913447A68B968184603F005FBFA69BD
:1031A0007B681A44FB68DA601AE0BB697B61FB68E4
:1031B0005A68FB6913447A69B968184603F0F4FA4F
:1031C0007A68BB69D31A7B61FB685868BA68BB69C7
:1031D00013447A69194603F0E7FAFB687A69DA6002
:1031E00000BF2037BD4680BD80B487B000AF786097
:1031F0007B681B693B617B68DB68FB603A69FB6845
:103200009A4208D87B689A68FB68D21A3B691344D3
:10321000013B7B6104E03A69FB68D31A013B7B61A7
:103220007B6918461C37BD465DF8047B704700007B
:1032300080B588B000AFF860B9607A60BB68BB61E8
:10324000FB685A1C13465B001344DB001E4A134400
:103250007B617B695B69012B17D0012B02D3022BA9
:1032600023D029E07869FFF7BFFF38613A697B68AE
:103270009A4202D20023FB6121E07B68FB617A68FD
:10328000B9697869FFF770FF19E07869FFF7ACFF5B
:1032900038617A683B69934228BF1346FB61FA693B
:1032A000B9697869FFF760FF09E07A68B9697869F8
:1032B000FFF700FFF86102E00023FB6100BFFB693C
:1032C00018462037BD4680BD1C0A002080B586B058
:1032D00000AFF860B9607A600D4B1B78002B01D10C
:1032E000FFF79AFEEFF311834FF0800181F311880D
:1032F0003B617A68B968F868FFF79AFF78613B69C3
:1033000083F311887B6918461837BD4680BD00BF1E
:103310001C0A002080B586B000AFF860B9607A6002
:103320003B60304B1B78002B01D1FFF775FE2D4B16
:103330001B691A46FB689A424CD9EFF311834FF090
:10334000800181F311883B61FB68002B32D0254955
:10335000FB685A1C13465B001344DB000B44BA683D
:103360001A602049FB685A1C13465B001344DB00BB
:103370000B4404337A681A601A49FA6813465B00F2
:103380001344DB000B4420333A681A601549FA688D
:1033900013465B001344DB000B44283300221A6001
:1033A0001049FA6813465B001344DB000B442433D6
:1033B00000221A600B49FA6813465B001344DB00D5
:1033C0000B442C333A6A1A603B6983F3118800235B
:1033D0007B6102E04FF0FF337B617B691846183751
:1033E000BD4680BD1C0A002080B586B000AFF860E5
:1033F000B9607A603B60304B1B78002B01D1FFF73E
:103400000BFE2D4B5B691A46FB689A424BD9EFF3D2
:1034100011834FF0800181F311883B61FB68002B21
:1034200031D02549FA6813465B001344DB000B4496
:103430004833BA681A602049FA6813465B0013449F
:10344000DB000B444C337A681A601B49FA68134658
:103450005B001344DB000B4450333A681A60164992
:10346000FA6813465B001344DB000B445833002218
:103470001A601149FA6813465B001344DB000B44E1
:10348000543300221A600C49FA6813465B00134457
:10349000DB000B445C333A6A1A603B6983F31188A2
:1034A00000237B6102E04FF0FF337B617B691846AC
:1034B0001837BD4680BD00BF1C0A002080B584B00F
:1034C00000AF78600B46FB707B689B68FB60FB6815
:1034D0005A1C7B685B689A420ED87B681A68FB6846
:1034E0001344FA781A70FB685A1C7B689A607B68F0
:1034F000DB685A1C7B68DA607B689A687B685B686B
:103500009A4215D17B6818697B6819687B689B684B
:103510001A46FFF7DBFE02467B689B689A4204D09E
:103520007B684FF0FF32DA6002E07B6800229A602D
:1035300000BF1037BD4680BD80B58AB000AFF860CF
:10354000B9607A603B60BB683B6201237B62012308
:10355000FB6107E03A6A7B68B2FBF3F33B62FB690D
:103560000133FB613A6A7B689A42F3D23A68FB699D
:103570009A4201D93B68FB617B6B03F00103002B8E
:1035800025D13B6B002B22D07B6B03F00203002B79
:1035900005D03B68002B02D13023FB7601E02023CD
:1035A000FB760BE03B6B013B3B63FB7E1946F86807
:1035B000FFF784FFFB68DB68002B07DB3B6B002B0E
:1035C00005D0FA693B6B9A42ECD300E000BFFB6880
:1035D000DB68002B55DB3B68012B03D93B68013BC3
:1035E0003B6009E0BA687B6AB2FBF3F37B617A69FE
:1035F0007B689A4200D205E07B6A7A6802FB03F39B
:103600007B62E8E7BA687B6AB2FBF3F37B617B69B4
:103610007A6A02FB03F3BA68D31ABB601B4A7B6960
:1036200013441B781946F868FFF748FFFB68DB680E
:10363000002B08DB7A6A7B68B2FBF3F37B627B6A60
:10364000002BDFD100E000BF7B6B03F00103002BF8
:1036500017D03B6B002B14D00AE03B6B013B3B6364
:103660002021F868FFF72AFFFB68DB68002B07DBE7
:103670003B6B002B05D0FA693B6B9A42EDD300E01F
:1036800000BF00BF2837BD4680BD00BFA87900003D
:1036900080B588B002AFF860B9607A603B60BB6803
:1036A000002BB8BF5B423B6101237B6107E07B6875
:1036B0003A6992FBF3F33B617B6901337B617B6881
:1036C0003A699A42F3DA3A687B699A4201D93B68CF
:1036D0007B613B6A002B0AD0BB68002B04DB7B6A52
:1036E00003F00403002B02D03B6A013B3B627B6A80
:1036F00003F00203002B02D03B68002B1CD07B6A36
:1037000003F00103002B17D13B6A002B14D00AE011
:103710003B6A013B3B622021F868FFF7CFFEFB6864
:10372000DB68002B07DB3B6A002B05D07A693B6A1C
:103730009A42EDD300E000BFFB68DB68002B4ADB58
:10374000BB68002B07DABB685B42BB602D21F868C1
:10375000FFF7B4FE08E07B6A03F00403002B03D0FC
:103760002B21F868FFF7AAFEFB68DB68002B32DB31
:103770007B6A03F00203002B1FD07B6A03F0010376
:10378000002B1AD13B68002B17D13B6A002B14D0B9
:103790000AE03B6A013B3B623021F868FFF78EFE8E
:1037A000FB68DB68002B07DB3B6A002B05D07A69DE
:1037B0003B6A9A42EDD300E000BFFB68DB68002B58
:1037C00009DBB9687B6A01933B6A00933B687A68BE
:1037D000F868FFF7B1FE00BF1837BD4680BD000096
:1037E00080B5A2B002AFF860B9607A6007F110034B
:1037F0003B6540237B650023BB65FB683B6600237C
:10380000FB65BB681B7887F87F30BB680133BB6002
:1038100097F87F30002B00F0618197F87F30252BDF
:1038200040F04F8100233B670123BB67BB681B78D7
:1038300087F87F3097F87F30233B0D2B3ED801A2CD
:1038400052F823F0AD380000BD380000BD3800004C
:10385000BD380000BD380000BD380000BD38000094
:10386000BD3800009D380000BD3800007D380000E4
:10387000BD380000BD3800008D3800003B6F43F0BC
:1038800001033B67BB680133BB601AE03B6F43F049
:1038900002033B67BB680133BB6012E03B6F43F040
:1038A00004033B67BB680133BB600AE03B6F43F036
:1038B00008033B67BB680133BB6002E00023BB67C2
:1038C00000BFBB6F002BB1D10023FB66BB681B7828
:1038D00087F87F3097F87F302F2B12D997F87F30F9
:1038E000392B0ED8BB680133BB60FA6E13469B00C0
:1038F00013445B001A4697F87F301344303BFB6655
:10390000E4E700237B67BB681B7887F87F3097F874
:103910007F302E2B1DD1BB680133BB60BB681B7889
:1039200087F87F3097F87F302F2B12D997F87F30A8
:10393000392B0ED8BB680133BB607A6F13469B00EE
:1039400013445B001A4697F87F301344303B7B6783
:10395000E4E7BB681B7887F87F3097F87F306C2BE3
:1039600003D097F87F30682B07D1BB681B7887F8A6
:103970007F30BB680133BB60EFE797F87F30642B83
:1039800028D0642B07DC582B4AD0632B0FD0252B73
:1039900000F08C8091E0732B55D0732B02DC702BE0
:1039A00071D08AE0752B28D0782B39D085E07B68E0
:1039B0001B68191D7A6811601B68BB67BB6F87F8AD
:1039C000673097F8672007F1500311461846FFF754
:1039D00075FD72E07B681B68191D7A6811601B68B1
:1039E000BB6707F150003B6F0193FB6E00937B6F49
:1039F0000A22B96FFFF74CFE5FE07B681B68191D58
:103A00007A6811601B68BB67B96F07F150003B6FA4
:103A10000193FB6E00937B6F0A22FFF78DFD4CE054
:103A20007B681B68191D7A6811601B68BB67B96FDA
:103A300007F150003B6F0193FB6E00937B6F1022E8
:103A4000FFF77AFD39E07B681B68191D7A68116001
:103A50001B68BB66BB6E1B7887F87F30BB6E01337B
:103A6000BB6697F87F30002B0BD097F87F2007F1CB
:103A7000500311461846FFF721FDFB6D002BE9DAD4
:103A80001BE000BF19E07B681B68191D7A68116094
:103A90001B68BB67B96F07F150000023019308232F
:103AA000009308231022FFF747FD06E007F15003BB
:103AB00025211846FFF702FD00BFBB680133BB603C
:103AC00007E097F87F2007F1500311461846FFF7EB
:103AD000F5FCFB6D002BBFF694AE00E000BFFB6D64
:103AE000002B0DDDBB6D002B06D0BA6D07F1100366
:103AF0001946F868FFF7EAFBFB6DBA6D1344FB65E6
:103B0000FB6D18468037BD4680BD00BF80B400AF56
:103B1000BFF34F8F0549054BDB6803F4E062044BAC
:103B20001343CB60BFF34F8F00BFFDE700ED00E014
:103B30000400FA0580B400AF034B044A1A6000BFCA
:103B4000BD465DF8047B7047640000200090D00300
:103B500080B500AF00F028F90346002B02D0854B5A
:103B6000854A1A6000F042F90346002B06D0834ACA
:103B7000834B1B685B0B03F00703136000F068F9CD
:103B80000346002B05D07F4A7E4BDB6823F0807311
:103B9000D36000F07FF90346002B0ED04FF0804336
:103BA0000022C3F80C214FF080430022C3F81021FB
:103BB0004FF080430022C3F8382500F09DF90346FA
:103BC000002B02D0704B03221A6000F0B7F90346B5
:103BD000002B0BD06D4B05221A606D4B01221A6031
:103BE0006C4B00221A606C4B3F221A6000F0C8F93F
:103BF0000346002B76D0694A4FF08053D3F8043443
:103C0000C2F82035654A4FF08053D3F80834C2F823
:103C10002435624A4FF08053D3F80C34C2F828356B
:103C20005E4A4FF08053D3F81034C2F82C355B4A0B
:103C30004FF08053D3F81434C2F83035574A4FF060
:103C40008053D3F81834C2F83435544A4FF08053B7
:103C5000D3F81C34C2F84035504A4FF08053D3F8A3
:103C60002034C2F844354D4A4FF08053D3F8243401
:103C7000C2F84835494A4FF08053D3F82834C2F887
:103C80004C35464A4FF08053D3F82C34C2F85035A7
:103C9000424A4FF08053D3F83034C2F854353F4A8B
:103CA0004FF08053D3F83434C2F860353B4A4FF0BC
:103CB0008053D3F83834C2F86435384A4FF0805313
:103CC000D3F83C34C2F86835344A4FF08053D3F807
:103CD0004034C2F86C35314A4FF08053D3F8443445
:103CE000C2F870352E4A2E4BD3F8883043F4700357
:103CF000C2F88830BFF34F8FBFF36F8F4FF01023A0
:103D0000D3F80032002B05DB4FF01023D3F8043238
:103D1000002B2BDA234B0122C3F8042500BF214BD3
:103D2000D3F80034002BFAD04FF010231522C3F83B
:103D3000002200BF1B4BD3F80034002BFAD04FF009
:103D400010231522C3F8042200BF164BD3F8003409
:103D5000002BFAD0134B0022C3F8042500BF114BEF
:103D6000D3F80034002BFAD0FFF7D0FEFFF7E2FEC5
:103D700000BF80BD74C007400DF0ADBA3C050040E7
:103D800044020010F0ED00E0A00500401056004095
:103D900088560040185600401456004000C00040AD
:103DA00000ED00E000E0014080B400AF0C4B1B6868
:103DB000DBB2062B0DD10B4B1B6803F00F03002B5E
:103DC00007D1094B1B6803F0F003302B01D101230D
:103DD00000E000231846BD465DF8047B704700BF35
:103DE000E00F00F0E40F00F0E80F00F080B400AF47
:103DF000144B1B68DBB2062B1DD1134B1B6803F061
:103E00000F03002B17D1114B1B6803F0F003302B6D
:103E100001D1012310E00D4B1B6803F0F003402B90
:103E200001D1012308E0094B1B6803F0F003502B7C
:103E300001D1012300E000231846BD465DF8047B54
:103E4000704700BFE00F00F0E40F00F0E80F00F053
:103E500080B400AF0C4B1B68DBB2062B0DD10B4BB3
:103E60001B6803F00F03002B07D1094B1B6803F0FD
:103E7000F003302B01D1012300E000231846BD469A
:103E80005DF8047B704700BFE00F00F0E40F00F026
:103E9000E80F00F080B400AF144B1B68DBB2062BB8
:103EA0001DD1134B1B6803F00F03002B17D1114BCF
:103EB0001B6803F0F003302B01D1012310E00D4B00
:103EC0001B6803F0F003402B01D1012308E0094BEC
:103ED0001B6803F0F003502B01D1012300E0002305
:103EE0001846BD465DF8047B704700BFE00F00F048
:103EF000E40F00F0E80F00F080B400AF0C4B1B683B
:103F0000DBB2062B0DD10B4B1B6803F00F03002B0C
:103F100007D1094B1B6803F0F003302B01D10123BB
:103F200000E000231846BD465DF8047B704700BFE3
:103F3000E00F00F0E40F00F0E80F00F080B400AFF5
:103F40000C4B1B68DBB2062B0DD10B4B1B6803F02F
:103F50000F03002B07D1094B1B6803F0F003302B34
:103F600001D1012300E000231846BD465DF8047B23
:103F7000704700BFE00F00F0E40F00F0E80F00F022
:103F800080B400AF0C4B1B68DBB2062B0DD10B4B82
:103F90001B6803F00F03002B07D1094B1B6803F0CC
:103FA000F003502B01D1012300E000231846BD4649
:103FB0005DF8047B704700BFE00F00F0E40F00F0F5
:103FC000E80F00F080B483B000AF78604FF0A042FB
:103FD00001217B6801FA03F3C2F8083500BF0C37F2
:103FE000BD465DF8047B704780B483B000AF786055
:103FF0004FF0A04201217B6801FA03F3C2F80C35AF
:1040000000BF0C37BD465DF8047B704780B58AB0B1
:1040100002AFF860B9601346FB800023FB750023F4
:10402000FB770023BB770023BB75FB68002B05D112
:1040300007F11703FB600123FB770BE0BB68002B44
:1040400005D107F11703BB600123BB7702E06FF0D6
:1040500005034AE00720FFF7C7FF3FE0254B00229A
:104060001A70FB681B78BB75234B1B781A4600211E
:104070002248FCF76DFA204B1A7807F1160101234C
:1040800000931E4B1E48FEF761F8B861BB69002B18
:1040900009D01C4A9921B869FCF7D4FAB869FCF731
:1040A000BBFA00E020BF134B1B78DBB283F00103A7
:1040B000DBB2002BF6D1114B1A78BB681A70FB8863
:1040C000013BFB80BB7F002B02D1BB680133BB608F
:1040D000FB7F002B02D1FB680133FB60FB88002BC8
:1040E000BCD10720FFF76EFF002318462037BD46DE
:1040F00080BD00BF180A0020217A0000D8090020E6
:10410000B8790000C079000080B584B000AF786055
:104110000023FB7300F080F8012000F096F897F977
:104120000F3018461037BD4680BD80B584B000AF53
:1041300003463960FB710023FB73FB79032B0DD120
:104140003B68BB60BB681868BB685968BB681B8963
:104150001A46FFF75BFF0346FB7302E0FF23FB7386
:1041600000BF97F90F3018461037BD4680BD80B4A8
:1041700083B000AF0023FB7197F9073018460C3766
:10418000BD465DF8047B704780B483B000AF7860B3
:104190004FF0A04201217B6801FA03F3C2F8083511
:1041A00000BF0C37BD465DF8047B704780B483B018
:1041B00000AF78604FF0A04201217B6801FA03F361
:1041C000C2F80C3500BF0C37BD465DF8047B704764
:1041D00080B500AF044B1B68002B02D0024B1B685C
:1041E000984700BF80BD00BFDC09002080B400AF4D
:1041F00000BFBD465DF8047B7047000080B500AF8E
:10420000044B00221A60FFF7F1FF00F005F80023CD
:10421000184680BDDC09002080B500AF0C20FFF7F8
:10422000C5FF0D20FFF7C2FF642000F00EF80C2040
:10423000FFF7AAFF0A2000F008F80D20FFF7A4FFFF
:104240000A2000F002F800BF80BD80B582B000AF48
:1042500078607868FDF712F800BF0837BD4680BD6A
:1042600080B586B000AF7860174A7B681360FDF7B1
:1042700093FB034683F00103DBB2002B02D0FDF772
:1042800053FB7861114B1B68FB6003237B7307F1C1
:104290000C030F4A19460B20FDF790FB78617B69F0
:1042A0003B613B69002B07D00A4A9C213869FCF727
:1042B000C9F93869FCF7B0F901210B20FDF7D8FBEB
:1042C00000BF1837BD4680BDDC090020787A0000A9
:1042D000D1410000247A000080B582B000AF0346CF
:1042E000FB71FB79002B04D001210B20FDF7C0FBF3
:1042F00003E000210B20FDF7BBFB00BF0837BD46E4
:1043000080BD000080B5AAB000AF03463A60FB71E3
:104310000B46BB80FB792C2B17D107F19C010023A6
:104320000422386800F098FE0346002B40F06281BA
:10433000B24B1B68002B00F05D81B04B1B6807F18E
:104340009C0211462C20984754E1FB791B2B17D176
:1043500007F1940100230822386800F07DFE03462F
:10436000002B40F04781A54B1B68002B00F04281D9
:10437000A24B1B6807F1940211461B20984739E1B4
:10438000FB79062B17D107F10C0101233022386885
:1043900000F062FE0346002B40F02C81974B1B6817
:1043A000002B00F02781954B1B6807F10C0211468A
:1043B000062098471EE1FB790E2B00F01B81FB794C
:1043C000322B17D107F1840100231022386800F046
:1043D00043FE0346002B40F00D81884B1B68002BE9
:1043E00000F00881854B1B6807F1840211463220DA
:1043F0009847FFE0FB792F2B1ED107F10C036422B5
:104400000021184600F01CFF07F10C010023642274
:10441000386800F021FE0346002B40F0EB80774B1C
:104420001B68002B00F0E680744B1B6807F10C0240
:1044300011462F209847DDE0FB79342B15D107F189
:10444000800100230422386800F006FE0346002B9A
:1044500040F0D080694B1B68002B00F0CB80674B8D
:104460001B68002134209847C4E0FB79112B1ED132
:10447000634B00221A7007F17C0100230422386884
:1044800000F0EAFD0346002B40F0B48097F87C2052
:104490005C4B1A70594B1B68002B00F0AB80574BDC
:1044A0001B6807F17C02114611209847A2E0FB79B6
:1044B000132B17D107F10C0100232C22386800F0D0
:1044C000CBFD0346002B40F095804C4B1B68002B26
:1044D00000F09080494B1B6807F10C021146132035
:1044E000984787E0FB79042B15D107F1A001002341
:1044F0000422386800F0B0FD0346002B7AD13F4B10
:104500001B68002B76D03D4B1B6807F1A0021146BB
:10451000042098476EE0FB79652B15D107F1A001C7
:1045200000230422386800F097FD0346002B61D178
:10453000324B1B68002B5DD0304B1B6807F1A0028B
:1045400011466520984755E0FB79092B15D107F1F5
:104550000C0101236422386800F07EFD0346002B25
:1045600048D1264B1B68002B44D0244B1B6807F115
:104570000C021146092098473CE0FB792A2B15D103
:1045800007F1780101230422386800F065FD034635
:10459000002B2FD1194B1B68002B2BD0174B1B68FE
:1045A00007F1780211462A20984723E0FB79202B57
:1045B00020D107F1700100230822386800F04CFD7B
:1045C0000346002B16D13B6803F10800396FB7F89A
:1045D0007420012300F040FD0346002B0AD1074B55
:1045E0001B68002B06D0054B1B6807F170021146B3
:1045F0002020984700BFA837BD4680BDE4090020B1
:10460000E1090020E009002080B58CB000AF78609F
:10461000002387F82F300123FB727B68002B03D126
:10462000F42387F82F302FE07B681B68194A13604A
:10463000194B00221A7007F10B03184600F0CEFE4A
:10464000034687F82F3097F92F30002B1BD100201D
:1046500000F098FA034687F82F3097F92F30002B97
:104660000CD10E49012000F07DFD07F10C03184626
:1046700000F01CFE034687F82F3005E000BF002045
:1046800000F002FF00E000BF97F92F3018463037E6
:10469000BD4680BDE4090020E1090020054300007B
:1046A00080B582B000AF786000F0B4FC03461846D5
:1046B0000837BD4680BD80B586B002AFF8607B602C
:1046C0000B46FB721346BB72BA7AF97A0023019348
:1046D0003B8B00937B68F86800F005F803461846AA
:1046E0001037BD4680BD80B5AAB004AFF8607B60CE
:1046F0000B46FB721346BB72002387F89730BB7AD8
:10470000012B53D07B68002B03D1F42387F897301B
:104710000FE1BB7A022B49D1786800F0AEFD034669
:10472000402B43D1002387F896307B68C7F8903040
:1047300038E097F89630D7F8902013441B782F2B49
:1047400027D997F89630D7F8902013441B78392B47
:1047500007D997F89630D7F8902013441B78402B50
:1047600017D997F89630D7F8902013441B78462B2A
:1047700007D997F89630D7F8902013441B78602B10
:1047800007D997F89630D7F8902013441B78662BFA
:1047900003D9F42387F89730CBE097F896300133AC
:1047A00087F8963097F896303F2BC2D9FB7A002BCA
:1047B00002D0FB7A202B03D9F42387F89730B8E096
:1047C000B7F8A0300D2B07D9B7F8A030FF2B03D0D6
:1047D000F42387F89730ACE0FA7A07F114034633F4
:1047E000F968184600F00CFDFB7A07F198021344B3
:1047F000002203F83E2CB7F8A030A7F8583097F8FD
:10480000A430002B14BF01230023DBB287F87B30D8
:1048100007F11403C7F88C30D7F88C30BA7A83F8D4
:104820004120BB7A032B43D17B68C7F88830D7F887
:104830008C30C7F88430D7F888301B78013BDAB267
:10484000D7F884301A70D7F884301B78032B03D93B
:10485000F42387F897306CE0D7F888305B78013B19
:10486000DAB2D7F884305A70D7F884305B780A2BE4
:1048700008D0D7F884305B781A2B03D0F42387F85C
:10488000973056E0D7F88430981CD7F88830991CB8
:10489000D7F888305B781A4600F0B2FCD7F8883039
:1048A0005B781A46D7F88430134400229A7030E0BF
:1048B000BB7A022B1BD1786800F0DFFC0346A7F817
:1048C0008230B7F88230002B03D0B7F88230402B0B
:1048D00003D9F42387F897302BE0D7F88C00B7F88A
:1048E000823001331A46796800F08AFC11E0BB7A05
:1048F000042B07D1D7F88C303E227968184600F097
:104900007FFC06E0BB7A012B03D0F42387F89730B5
:104910000FE007F114020023029300230193002308
:1049200000936C232821012000F05AF9034687F8F0
:10493000973097F9973018469837BD4680BD80B4B8
:1049400000AF00231846BD465DF8047B70470000A9
:1049500080B588B004AF0346FB710023FB73184B8E
:104960001B78DBB2002B21D1FB790D2B02D9FB790F
:10497000FF2B18D1FB793B7207F108020023029349
:10498000002301930023009304231021012000F051
:1049900027F90346FB7397F90F30002B09D1084B19
:1049A00001221A7005E0F123FB7303E0F223FB738D
:1049B00000E000BF97F90F3018461037BD4680BDA4
:1049C000E109002080B400AF054B1B78DBB2013356
:1049D000DAB2034B1A7000BFBD465DF8047B704726
:1049E000EB09002080B582B000AF0023FB710120ED
:1049F000FFF772FC3B46194641F2700001F040F8A7
:104A00000346FB7197F90730002B0FD13B6843F049
:104A100002033B603B68194641F2700001F03EF82A
:104A20000346FB7197F90730002B00E000BF97F9B0
:104A3000073018460837BD4680BD80B483B000AF4C
:104A400003463A60FB710B46BB8000BF0C37BD4686
:104A50005DF8047B7047000080B582B000AF002392
:104A6000FB711A4B1B78DBB2002B1DD1184B1B7846
:104A7000DBB2032B04D0164B1B78DBB2042B13D113
:104A800000F05AFD0346FB7197F90730002B13D154
:104A900045F2786141F2740001F000F80346FB71C1
:104AA00097F90730002B09D1084B1B78DBB2013393
:104AB000DAB2064B1A7002E000BF00E000BF97F9BF
:104AC000073018460837BD4680BD00BFE909002001
:104AD000E809002080B582B000AF0023FB71274BAE
:104AE0001B78DBB2002B06D0244B1B78DBB2013BDA
:104AF000DAB2224B1A70214B1B78DBB2002B36D175
:104B00001F4B1B78DBB2032B04D01D4B1B78DBB291
:104B1000042B2CD100233B6044F2213141F274007C
:104B200000F0BCFF0346FB7197F90730002B1BD147
:104B30003B461946012000F0A3FF0346FB7197F99D
:104B40000730002B12D13B6803F00203002B0ED07C
:104B50003B6823F002033B603B681946012000F0EC
:104B60009DFF0346FB7102E000BF00E000BF97F924
:104B7000073018460837BD4680BD00BFE909002050
:104B8000E809002080B582B000AF78600D4B0022AC
:104B90001A600D4B00221A600C4B00221A700C4B4D
:104BA00000221A700B4B00221A700B48FFF758FBBB
:104BB0000A49032000F0D6FA002318460837BD46FC
:104BC00080BD00BFEC090020F0090020E9090020A9
:104BD000E8090020EB090020C54900003B4A00001D
:104BE00080B588B000AF3A601A460346FB710B46A9
:104BF000BB711346BB80FF23FB77BB7903F07F03B8
:104C0000DBB27B76FB793B7608237B83BB6A002B88
:104C100009D07B8B9AB2398EBB8D0B449BB2134467
:104C20009BB27B8305E07B8B9AB2BB8813449BB21B
:104C30007B83FFF711FF0346FB7797F91F30002BAB
:104C400040F0CA8000233B610023FB8100237B618D
:104C5000FA797B6913437B61BB791A027B69134341
:104C60007B617B8B9BB21A047B6913437B617B69FD
:104C7000194641F28C0000F011FF0346FB7797F9CB
:104C80001F30002B40F0AA8000237B617B6943F03A
:104C900002037B617B69194641F2780000F0FEFE59
:104CA0000346FB7797F91F30002B40F099800023D3
:104CB0003B610023FB8125E007F11403194641F213
:104CC000780000F0DDFE0346FB7797F91F30002BDC
:104CD0001ED17B6903F00203002B0ED107F11003F4
:104CE0001946464800F0CCFE0346FB7797F91F3083
:104CF000002B0FD000233B610CE0FB899BB20133FA
:104D00009BB2FB81FB899BB2B3F57A7FD4D302E0DF
:104D100000BF00E000BF3B69002B55D03B69BB6082
:104D20007B8B9BB27B83BB6807F118010822184676
:104D300000F030FF0346FB7797F91F30002B51D16D
:104D4000BB680833BB603B68002B0FD0BB68BA88D8
:104D50003968184600F01EFF0346FB7797F91F30AD
:104D6000002B41D1BA88BB681344BB60BB6A002BDF
:104D700016D03A8EBB88D31A1A46BB681344BB6060
:104D8000BB68BA8DB96A184600F004FF0346FB778A
:104D900097F91F30002B29D1BA8DBB681344BB6033
:104DA0003B699B007B617B6943F002037B617B690C
:104DB000194641F26C0000F071FE0346FB7797F94B
:104DC0001F30002B03D012E0FD23FB770FE0FFF72D
:104DD00081FE0346FB770AE000BF08E000BF06E063
:104DE00000BF04E000BF02E000BF00E000BF97F991
:104DF0001F3018462037BD4680BD00BF0004150097
:104E000080B584B000AFFA23FB73FFF725FE03469D
:104E1000FB7397F90F30002B40F0E58007F1080392
:104E2000194641F2700000F02BFE0346FB7397F920
:104E30000F30002B40F0D980BB6803F00103002B3A
:104E400000F0CC800020FFF747FABB6823F0010395
:104E5000BB60BB68194641F2700000F01FFE0346BC
:104E6000FB7397F90F30002B40F0C180634B002299
:104E70001A70BB689B089BB2C3F30B03BB81BB8951
:104E8000002B00F0A88000233B603B46194641F20E
:104E9000840000F0F5FD0346FB7397F90F30002BFB
:104EA00003D00120FFF718FAA2E03B68391D042265
:104EB000184600F013FE0346FB73FB889BB2FB8091
:104EC00097F90F30002B03D00120FFF705FA8FE090
:104ED000FB889BB2BA899A420BD0BB89FA8892B2FE
:104EE0009B1A042B05DD0120FFF7F6F9FA23FB736B
:104EF0007EE03B79DBB2012B0FD1414B1B68002BCD
:104F00005FD03F4B1B687A79D0B2FA8892B2083AE8
:104F100091B23A680832984753E03B79DBB2022BF2
:104F20000FD1384B1B68002B4BD0364B1B687A795E
:104F3000D0B2FA8892B2083A91B23A6808329847E9
:104F40003FE03B79DBB2042B0FD12F4B1B68002BCA
:104F500037D02D4B1B687A79D0B2FA8892B2083AD2
:104F600091B23A68083298472BE03B79DBB2062BC6
:104F70000FD1264B1B68002B23D0244B1B687A795A
:104F8000D0B2FA8892B2083A91B23A680832984799
:104F900017E03B79DBB2072B0FD11D4B1B68002BB1
:104FA0000FD01B4B1B687A79D0B2FA8892B2083ABC
:104FB00091B23A680832984703E0FA23FB7300BFC6
:104FC00016E00E4B1B78DBB2002B07D1FFF70AFD72
:104FD0000346FB7302E0FE23FB7309E0FFF77AFD53
:104FE0000346FB7304E000BF02E000BF00E000BF27
:104FF00097F90F3018461037BD4680BDEA090020EA
:10500000EC090020F0090020F4090020000A00202B
:10501000F809002080B582B000AF0023FB710EE0DC
:105020000C4B1B78DBB2013BDAB20A4B1A70FFF76C
:10503000E7FE0346FB7197F90730002BF7D1054BCC
:105040001B78DBB2002BEBD197F9073018460837F5
:10505000BD4680BDEB09002080B588B000AFF86088
:10506000B96011461A460B46FB8013467B7100233C
:10507000FB77FB68002B05D0BB68002B02D0FB88B8
:10508000002B0DD17B79002B07D0354B01221A70F4
:10509000FFF7A8FC0346FB775CE0F423FB7759E0BD
:1050A00007F11403194641F2700000F0E9FC0346D1
:1050B000FB7797F91F30002B47D17B699B089BB288
:1050C000C3F30B03BB8307F11803194641F28400B5
:1050D00000F0D6FC0346FB7797F91F30002B36D142
:1050E000FA88BB8B9A4202D9F423FB7732E0BB6982
:1050F000FA689A4207D3FA88FB681A44B98BBB69ED
:105100000B449A4202D9F423FB7723E0FB881A462A
:10511000B968F86800F0E2FC0346FB7797F91F30A6
:10512000002B16D1BA8BBB691A44F988FB680B4473
:105130009A4202D07B79002B0CD0094B01221A70C5
:10514000FFF750FC0346FB7704E000BF02E000BF1E
:1051500000E000BF97F91F3018462037BD4680BDDC
:10516000EA09002080B485B000AF03463960FB71C6
:105170000023FB73FB79013B062B29D801A252F8CF
:1051800023F000BFA9510000A1510000B951000057
:10519000B1510000D1510000C1510000C9510000BF
:1051A000114A3B68136016E0104A3B68136012E036
:1051B0000F4A3B6813600EE00E4A3B6813600AE03A
:1051C0000D4A3B68136006E00C4A3B68136002E03E
:1051D000F423FB7300BF97F90F3018461437BD4610
:1051E0005DF8047B704700BFF0090020EC09002047
:1051F000F4090020FC090020000A0020F809002022
:1052000080B485B000AFF860B9607A607B68002B2D
:1052100010D0BB681A78FB681A70FB680133FB601A
:10522000BB680133BB607B68013B7B607B68002B04
:10523000EFD100E000BF1437BD465DF8047B704736
:1052400080B485B000AFF8600B467A60FB727B6873
:10525000002B0CD0FB68FA7A1A70FB680133FB60F4
:105260007B68013B7B607B68002BF3D100E000BFD3
:105270001437BD465DF8047B704780B485B000AF3D
:1052800078600023FB8105E0FB890133FB817B68AB
:1052900001337B607B681B78002BF5D1FB891846B6
:1052A0001437BD465DF8047B7047000080B586B0BA
:1052B00000AF78600023FB600023FB7507F10C034F
:1052C0001946444800F0DCFB0346FB75FB68424A84
:1052D000934208D107F10C03194641F2480000F04F
:1052E000CFFB0346FB75FB681B0C9BB21B0A9BB2F2
:1052F000DAB27B68DA71FB681B0C9BB21B099BB2AC
:10530000DBB203F00F03DAB27B681A72FB681B0C86
:10531000DBB203F00F03DAB27B685A72FB689BB210
:105320001B0A9BB2DAB27B681A71FB689BB21B093D
:105330009BB2DBB203F00F03DAB27B685A71FB68F1
:10534000DBB203F00F03DAB27B689A7100F0DEF98A
:1053500002467B681A607B681B791B021AB27B6865
:105360005B791B011BB2DBB21BB213431AB27B6821
:105370009B791BB203F00F031BB213431BB2BB821A
:1053800041F230337B827B68DB791B021AB27B6887
:105390001B7A1B011BB2DBB21BB213431AB27B6830
:1053A0005B7A1BB203F00F031BB213431BB23B82A9
:1053B0007A8A3B8A9A4201D2F323FB757A8ABB8AA6
:1053C0009A4201D9F323FB7597F91730184618371D
:1053D000BD4680BDAC070200C3C15DD780B584B0B7
:1053E00000AF78600023FB737B68002B0BD07B68D9
:1053F0001B78BB73BB7B002B02D0BB7B042B04D977
:105400000123BB7301E00123BB73002000F00CFB00
:105410000346FB7397F90F30002B2ED101F00CF8E7
:10542000BB7B184600F0E6F90346FB7397F90F3093
:10543000002B1AD1BB7B184600F05CFA0346FB73C5
:1054400097F90F30002B12D1BB7B022B16D0BB7B00
:10545000032B13D000F00EF90346FB7397F90F30BE
:10546000002B06D197F90F300AE000BF02E000BF21
:1054700000E000BF00F0E9FA00E000BF97F90F304C
:1054800018461037BD4680BD80B584B000AF786047
:1054900000F07AFA0346FB7397F90F30002B13D113
:1054A000002001F015F90346FB7397F90F30002B2C
:1054B0000CD100F0CAFA0346FB7397F90F30002BAA
:1054C00006D101F00BF804E000BF02E000BF00E0ED
:1054D00000BF97F90F3018461037BD4680BD80B524
:1054E00086B000AF78600023FB757B683B6139694B
:1054F0004FF4A55000F0D2FA3B69002B13D00023E3
:10550000FB6007F10C0319464FF4A55000F0B8FA00
:105510000346FB7597F91730002BE8D1FA683B6911
:105520009A4202D0E3E700BF00E000BF0023184624
:105530001837BD4680BD000080B584B000AF0023A1
:10554000FB730023BB600120FEF77FFE3B1D194665
:10555000012000F095FA0346FB7397F90F30002BFA
:105560007AD17B6843F002031946012000F096FAD5
:105570000120FEF76AFE3D4B1B683A46114618466D
:1055800000F07EFA0346FB7397F90F30002B06D12B
:1055900097F90F30002B3AD13B68002B37D1334BB2
:1055A0000E221A600120FEF750FE304B1B683A466F
:1055B0001146184600F064FA0346FB7397F90F3062
:1055C000002B06D197F90F30002B20D13B68002B20
:1055D0001DD1264B13221A600120FEF736FE234B05
:1055E0001B683A461146184600F04AFA0346FB7318
:1055F00097F90F30002B31D109E00220FEF725FE8C
:105600001A4B1B683A461146184600F039FA3B68B7
:1056100003F00403002B0DD1BB680133BB60B968F4
:10562000134BA3FB01235A0813465B001344CA1A09
:10563000002AE2D03B6803F00403002B06D17B680C
:1056400043F002031946012000F028FA3B6803F0FA
:105650000403002B85D002E000BF00E000BF97F9F3
:105660000F3018461037BD4680BD00BF6C000020CB
:10567000ABAAAAAA80B582B000AF3B46194641F258
:10568000084000F0FDF90346FB7197F90730002B45
:1056900002D06FF0050335E03B6843F480733B6054
:1056A0003B68194641F2084000F0F8F90346FB71E7
:1056B00097F90730002B02D06FF0050322E03B463C
:1056C00019464FF4D05000F0DBF90346FB7197F90F
:1056D0000730002B02D06FF0050313E03B6843F462
:1056E00080333B603B6819464FF4D05000F0D6F948
:1056F0000346FB7197F90730002B02D06FF00503CA
:1057000000E0002318460837BD4680BD80B582B052
:1057100000AF314B1B68002B57D12F494FF48050FD
:1057200000F0AEF90346002B04D02B4B00221A6088
:1057300000234CE03B1D194641F2F43000F0A0F983
:105740000346002B04D0244B00221A6000233EE0C5
:10575000214B1B68214A934206D17B68012B28D03C
:105760001D4B1F4A1A6024E01B4B1B681D4A9342C5
:105770000DD17B68032B1CD07B68042B03D1164B07
:10578000194A1A6015E0144B184A1A6011E0124BBE
:105790001B68174A93420CD10F494FF46C1000F06C
:1057A0006FF90346002B04D00B4B00221A60002334
:1057B0000DE0094B1B6823F47023074A1360064B66
:1057C0001B6843F4A023044A1360034B1B6818466C
:1057D0000837BD4680BD00BF040A0020A0021000AB
:1057E000A1021000B0021000B1021000B2021000BD
:1057F000F000100080B586B000AF0346FB710023B7
:10580000FB7200237B6100233B610023FB600023CC
:105810007B6141F2140000F027F978617B69002B6D
:1058200003DB0120FEF711FDF3E700BF2C4800F079
:105830001BF978617B6903F001037B617B69002BB5
:1058400011D100237B610AE00120FEF7FEFC4FF03E
:105850000C1000F009F978613B6901333B617B6909
:10586000204A9342F0D1FB79022B0AD11E491F48EE
:1058700000F014F94FF4801141F28C0000F00EF9A1
:1058800011E0FB79032B09D11749184800F006F9FC
:10589000002141F28C0000F001F904E0FB79042BB7
:1058A00001D18023FB60FFF731FF0346C3F30B03F5
:1058B000B3F5687F06D1FB6843F002031846FFF793
:1058C0000EFE02E0F868FFF70AFE09494FF00C10DF
:1058D00000F0E4F897F90B3018461837BD4680BD44
:1058E000BC0702009ED0AD107DD51C3CAC07020069
:1058F000612F52EF80B588B000AF0346FB710023E3
:10590000FB770023BB6100237B614FF0FF333B61DA
:1059100041F28C03FB60194BBB60FB79022B02D078
:10592000FB79032B16D1164BFB60164BBB6011E0C5
:105930000220FEF78AFCFB68184600F095F8B86173
:105940007B6901337B617A693B699A4202D3FB230D
:10595000FB770CE0BA68BB699A42E9D1BB68074A99
:10596000934204D1002141F28C0000F097F897F99E
:105970001F3018462037BD4680BD00BF3626530273
:10598000AC070200C3C15DD780B582B000AF002371
:105990003B600A23BB713B4619464FF4A05000F010
:1059A0006FF80346FB713B6823F480633B603B6800
:1059B00019464FF4A05000F071F80346FB7197F9B7
:1059C0000730002B02D097F9073029E03B461946F3
:1059D0004FF4A05000F054F80346FB7197F90730DC
:1059E000002B02D097F907301AE03B6803F480637C
:1059F000002B12D03B6823F480633B603B68194660
:105A00004FF4A05000F04AF80346FB71BB79013B0C
:105A1000BB71BB79002BD9D100E000BF97F90730EB
:105A200018460837BD4680BD80B584B000AF7860A9
:105A30000023FB737868FEF767FB0346FB7397F957
:105A40000F3018461037BD4680BD80B582B000AF1C
:105A50000023FB71FEF78BFB0346FB7197F90730C0
:105A600018460837BD4680BD80B582B000AF78606B
:105A7000786800F041FD034618460837BD4680BDF2
:105A800080B582B000AF786039603968786800F01E
:105A900042FD034618460837BD4680BD80B582B03A
:105AA00000AF786039603968786800F04EFD0346D1
:105AB00018460837BD4680BD80B584B000AFF86099
:105AC000B9601346FB80FB881A46B968F86800F095
:105AD00056FD034618461037BD4680BD80B586B0DA
:105AE00000AFF860B9607A60204B1B88083B3B82AE
:105AF00000237B610023FB743A8A7B689A420FD3B0
:105B0000BA687B6913447A6892B21946F868FFF75D
:105B1000D3FF0346DAB2FB7C1344DBB2FB741FE015
:105B2000BA687B6913443A8A1946F868FFF7C4FFDC
:105B30000346DAB2FB7C1344DBB2FB7497F91330F3
:105B4000002B0CD13B8A7A68D31A7B603B8A7A6936
:105B500013447B613B8AFA681344FB60CCE700BFC7
:105B600097F9133018461837BD4680BD68000020ED
:105B700080B584B000AFF860B9601346FB80FB8845
:105B80001A46B968F86800F018FD03461846103741
:105B9000BD4680BD80B586B000AFF860B9607A6060
:105BA000204B1B88083B3B8200237B610023FB7456
:105BB0003A8A7B689A420FD3BA687B6913447A6841
:105BC00092B21946F868FFF7D3FF0346DAB2FB7CBE
:105BD0001344DBB2FB741FE0BA687B6913443A8A52
:105BE0001946F868FFF7C4FF0346DAB2FB7C13449A
:105BF000DBB2FB7497F91330002B0CD13B8A7A6827
:105C0000D31A7B603B8A7A6913447B613B8AFA68CA
:105C10001344FB60CCE700BF97F9133018461837E0
:105C2000BD4680BD6800002080B586B000AF7860BA
:105C30000B467B800023FB607B683B617B88BB82DB
:105C400007F10C0319460320FEF76FFA03461846C6
:105C50001837BD4680BD80B586B000AF78600B4672
:105C60007B807B68FB6000233B617B88BB8207F104
:105C70000C0319460320FEF758FA03461846183756
:105C8000BD4680BD80B483B000AF03460A46FB71B9
:105C90001346BB71FB795A00BB795340034AD35C6E
:105CA00018460C37BD465DF8047B70477C7A0000CF
:105CB00080B584B000AF0346B9607A60FB730AE038
:105CC000BB685A1CBA601A78FB7B11461846FFF76E
:105CD000D9FF0346FB737B685A1E7A60002BEFD115
:105CE000FB7B18461037BD4680BD000090B589B0DB
:105CF00000AFB9607A603B600346FB730523FB7716
:105D00000123BB77FB7B3B75FB7BC13B0E2B00F27A
:105D1000CC8001A252F823F0D15D0000D15D0000DB
:105D20002D5E0000715D00009B5D0000AD5D000018
:105D3000FB5D0000FB5D0000715E0000555D000032
:105D4000AB5E0000AB5E0000AB5E0000AB5E00002F
:105D5000BF5D0000BB681B0CDBB27B75BB681B0A18
:105D6000DBB2BB75BB68DBB2FB750523FB779FE03D
:105D7000BB681B0ADBB27B7597F83030002B04D070
:105D80007B7D63F07F03DBB27B75BB68DBB2BB75E9
:105D90000023FB750523FB778AE000237B75002336
:105DA000BB750023FB750523FB7781E000237B7522
:105DB0000023BB750023FB750523FB7778E0FF23E9
